:100000000C94DE010C9406020C9406020C94060279
:100010000C9406020C9406020C9406020C94060240
:100020000C9406020C9406020C9406020C949D108B
:100030000C9406020C9406020C9406020C94060220
:100040000C9453100C9406020C9406020C940602B5
:100050000C9406020C9406020C9406020C94060200
:100060000C9406020C9406020101FF030101F70340
:100070006C00680000000000240027002A00000037
:100080000000250028002B000500893008023802F6
:100090004978681400005369657270696E736B6902
:1000A000005369657270696E736B690005003801F1
:1000B000680100001753440016137800161314004B
:1000C0001510200015201000540A03E181867F3EA0
:1000D000186D830F0F0E0183866033186DC3198F5F
:1000E0001803C38E6033186DE330CF1803C39E60CE
:1000F0003630CDE360CF3006C79E7E3E30CDB36054
:10010000CF300CC6F6603330D9B660CF33CFCCF6E3
:100110006061B0DB1E60CF30D86CE6C061B0DB1E22
:10012000618F19986CC6C063B19B0E330F0FB07806
:10013000C6FF7E1F1B061E0F0A0A153A49676E6F1F
:100140007265006D560A0A504C454153452054557E
:10015000524E204F464620004C4F572042415454A7
:1001600045525921200003053F213F1208120A1071
:100170000A0E1C0E0C1E0C141A14161F161E131E2B
:100180001E1B1E1E1F1E3F213F3A2F3A173D173FD1
:10019000213F181F02040A041F0E04040E1F0A1F29
:1001A0000A0E0E1F04110E2E252E2F2A2E26292967
:1001B000021F02081F08150E04040E150E15151B4C
:1001C000151B040604040C040000000017000300C3
:1001D000031F0A1F16371A1904130A153A000300E1
:1001E000000E11110E000A040A040E04003000046F
:1001F00004040010001804031F111F121F101D1506
:100200001711151F07041F17151D1F151D01011FAD
:100210001F151F17151F000A00003200040A110ADB
:100220000A0A110A040115020E11171E051E1F15D8
:100230000A0E110A1F110E1F15111F05010E111DA7
:100240001F041F111F1108100F1F041B1F10101F68
:10025000061F1E040F0E110E1F09060E112E1F057C
:100260001A121509011F011F101F0F180F1F0C1F55
:100270001B041B031C03191513001F110304181181
:100280001F000201022020200001020C121E1F127A
:100290000C0C12120C121F0C1A14041E05242A1E18
:1002A0001F021C141D1020201D1F0814111F101EDA
:1002B000041E1E021C0C120C3E0A040C123E1E04EC
:1002C0000214160A020F120E101E0E100E1E081E29
:1002D000120C1226281E322A26041E21001F00217D
:1002E0001E040102013F213FF6E8DBCFC3B8AEA4F4
:1002F0009B928A827B746E68625C57524E4945417C
:100300003E3A3734312E2C29272523214500680118
:100310000000172B152010204C4F41444552001768
:100320002B16201314000A4E6F2053442063617271
:1003300064206F720A6E6F204C4F414445522E4824
:1003400045580A0A153A45786974001D20466C61C3
:100350007368696E670A20206C6F616465722E2E67
:100360002E0A0A444F4E2754205455524E204F46D1
:100370004621000000000023002600290004040498
:10038000040404040402020202020203030303033E
:10039000030102040810204080010204081020011B
:1003A00002040810200000000800020100000304FD
:1003B00007000000000000000000C71311241FBE4A
:1003C000CFEFD8E0DEBFCDBF11E0A0E0B1E0EEE2BC
:1003D000FCE202C005900D92AC31B107D9F723E0E1
:1003E000ACE1B1E001C01D92A43BB207E1F711E01E
:1003F000CEEDD1E004C02197FE010E940F16CD3D45
:10040000D107C9F70E94DE100C9415160C94000059
:10041000EDE2F3E014AE12AE109276031092750383
:1004200015AE10922C0110922B0110922A011092FD
:10043000B4000895CF93DF93E0915B038E2F90E09B
:10044000880F991FE0915903F0915A03E80FF91FA3
:10045000859194918F3F980729F410925203DF9170
:10046000CF91089590935E039927880F991FE0918B
:100470005C03F0915D03E80FF91FC591D4910E94D0
:100480000802D0936003C0935F031092650310923B
:10049000640381E08093530389E0809368031092A2
:1004A0006B0310926D0310926F0380915B038F5F5B
:1004B00080935B03D4CF90E0880F991FE091610394
:1004C000F0916203E80FF91F259134913093720384
:1004D00020937103F9018591949190915603989F0F
:1004E000802D112480937303F90165917491472F36
:1004F00050E08417150629F020F0F9012591349178
:10050000832F989F802D1124809374030895AF92B8
:10051000BF92CF92DF92EF92FF920F931F93CF93F0
:10052000DF936C017B018B01040F151FEB015E0152
:10053000AE18BF08C017D10759F06991D601ED91E7
:10054000FC910190F081E02DC6010995892B79F786
:10055000C501DF91CF911F910F91FF90EF90DF9038
:10056000CF90BF90AF900895833081F028F4813010
:1005700099F08230A9F008958730A9F08830C9F049
:100580008430B1F4809180008F7D03C08091800021
:100590008F7780938000089584B58F7784BD089508
:1005A00084B58F7DFBCF8091B0008F778093B000B2
:1005B00008958091B0008F7DF9CF1F93CF93DF9383
:1005C000282F30E0F901EB55FC4F8491F901EF56EB
:1005D000FC4FD491F901E358FC4FC491CC23A9F00E
:1005E000162F81110E94B402EC2FF0E0EE0FFF1FD6
:1005F000E258FF4FA591B4918FB7F894EC91111187
:1006000008C0D095DE23DC938FBFDF91CF911F917F
:100610000895DE2BF8CFCF93C82FF89460E0809137
:100620008A030E94DD0280918B0318161CF460E09F
:100630000E94DD02CEBD00000DB407FEFDCF8EB5D9
:1006400080918B0318161CF461E00E94DD027894FF
:10065000CF9108950F931F93CF93809187038F5F5E
:10066000809387030DE211E0C0E08C2F80640E942C
:100670000B0380E80E940B0361E080918A030E94D3
:10068000DD0280918B0318161CF460E00E94DD02ED
:10069000F80184E591919EBD00000DB407FEFDCFE9
:1006A0009EB58150B9F780918B0318161CF461E058
:1006B0000E94DD02CF5F0C5A1F4FC630B1F680E4B6
:1006C000CF911F910F910C940B03CF93DF9390E088
:1006D000FC01EF56FC4F249183589C4FFC01849100
:1006E0008823C9F090E0880F991FFC01EC58FF4F58
:1006F000A591B491FC01E258FF4FC591D4916111CD
:100700000DC09FB7F8948C91209582238C9388819B
:10071000282328839FBFDF91CF910895623051F441
:100720009FB7F8943C91822F809583238C93E88126
:100730002E2BEFCF8FB7F894EC912E2B2C938FBFED
:10074000EACFFF920F931F93CF93DF93CDE2D3E0D5
:10075000FF24FA9462E08A850E9465032A8530E0CE
:10076000F901EB55FC4F8491F901EF56FC4F0491D0
:10077000F901E358FC4F14911123E1F081110E941B
:10078000B402E12FF0E0EE0FFF1FED58FC4FA591F2
:10079000B491EC9189890E2369F0811113C02196DF
:1007A00083E0C433D807B1F6DF91CF911F910F9149
:1007B000FF90089589898F5F898B60E08A850E9408
:1007C0006503EDCF8F3F11F4198AF7CFF98AF5CF82
:1007D0001F93CF93DF93182FEB0161E00E94650315
:1007E000209739F460E0812FDF91CF911F910C9415
:1007F000DD02CF3FD10511F461E0F5CFE12FF0E04C
:10080000EB55FC4FE491E33031F140F4E130B1F0CD
:10081000E230E1F0C038D1057CF7E4CFE73029F1D0
:10082000E83059F1E430B1F7809180008062809324
:100830008000D0938B00C0938A0004C084B5806888
:1008400084BDC7BDDF91CF911F91089584B58062AB
:1008500084BDC8BDF7CF8091800080688093800000
:10086000D0938900C0938800EDCF8091B00080685C
:100870008093B000C093B300E5CF8091B000806258
:100880008093B000C093B400DDCF8E50806480931D
:100890007C0080917A00806480937A0080917A0055
:1008A00086FDFCCF80917800909179000895809129
:1008B00051038F7149F584E10E944504BC01990FF1
:1008C000880B990B0E94D21426EE3FE34EEC50E4C5
:1008D0000E945E150E94A1149B01709348036093CF
:1008E0004703672BB9F084E080934603E9E4F3E023
:1008F00080E0419151912417350718F48093460305
:1009000008958F5F8430A9F7809151038F5F8093A2
:10091000510308958FEF80934603F6CF3FB7F894C5
:1009200080911E0190911F01A0912001B0912101A1
:1009300026B5A89B05C02F3F19F00196A11DB11D3A
:100940003FBFBA2FA92F982F8827BC01CD01620F76
:10095000711D811D911D42E0660F771F881F991F31
:100960004A95D1F708958F929F92AF92BF92CF92FE
:10097000DF92EF92FF924B015C010E948E046B01AB
:100980007C010E948E046C197D098E099F09683EC6
:10099000734081059105A8F321E0821A9108A1080E
:1009A000B10888EEC80E83E0D81EE11CF11C81144A
:1009B0009104A104B10429F7FF90EF90DF90CF904C
:1009C000BF90AF909F908F900895DC01643570F5D3
:1009D000403360F590968C919097E62F062E000C90
:1009E000FF0B242F25952595259594E52902E00DEB
:1009F000F11D1124E35DFE4F2081342F37708230CA
:100A0000B1F4822F90E0032E02C0959587950A9449
:100A1000E2F780958170811114C081E090E001C0FF
:100A2000880F3A95EAF78095822380830895833072
:100A300091F71C968C918170642760956170861384
:100A4000ECCF81E090E001C0880F3A95EAF7822B65
:100A5000ECCFAF92BF92CF92DF92EF92FF920F93C3
:100A60001F93CF93DF93182F062FC0E0D3E08AEFB8
:100A7000D82E9EEFE92E842F8470C82E842F82708A
:100A8000B82E842F8870A82E4170F42ECF5F8C2F43
:100A9000880F8F5FE80ECC2081F0402F4D0F612F23
:100AA0006C0F8BE793E00E94E504402F4C0F6D2FF5
:100AB000610F8BE793E00E94E504BB2081F0402F9B
:100AC0004D1B612F6C0F8BE793E00E94E504402FD4
:100AD0004C1B6D2F610F8BE793E00E94E504AA2069
:100AE00081F0402F4C0F612F6D1B8BE793E00E942C
:100AF000E504402F4D0F612F6C1B8BE793E00E94A4
:100B0000E504FF2081F0402F4C1B612F6D1B8BE70C
:100B100093E00E94E504402F4D1B612F6C1B8BE777
:100B200093E00E94E504CD173CF4E7FCAFCFD15031
:100B3000D394D394ED0CAACFDF91CF911F910F9155
:100B4000FF90EF90DF90CF90BF90AF9008950F93FC
:100B50001F93CF93DF93D82F162F042FC0E0C01719
:100B60004CF4412F4C0F6D2F8BE793E00E94E5046E
:100B7000CF5FF5CFDF91CF911F910F9108958F92A5
:100B80009F92AF92BF92CF92DF92EF92FF920F931C
:100B90001F93CF93DF93082FA62E842E922E83E0EF
:100BA000F82ED0E0C3E09AEFE92E1EEFBB24B394F9
:100BB000B20EDF5F1F0D4C2F440F6A2D6C1BC92C2A
:100BC000CF0CDA2CDD1A81E04B0D881215C0802F76
:100BD0008D0F0E94A7054C2D6D2D8C2F800F0E942C
:100BE000A705DC1794F417FD04C0C150E394E39407
:100BF0001E0DF394F394DDCF802F8D1B0E94A7056B
:100C00004C2D6D2D802F8C1BEACFDF91CF911F9142
:100C10000F91FF90EF90DF90CF90BF90AF909F909B
:100C20008F900895EF92FF920F931F93CF93DF93CE
:100C30008C01F62ED42FE22EC0E0CE1544F46F2D99
:100C40006C0F4D2FC8010E94E504CF5FF6CFDF91F6
:100C5000CF911F910F91FF90EF9008952F923F92A7
:100C60004F925F926F927F928F929F92AF92BF92BC
:100C7000CF92DF92EF920F931F93CF93DF93CDB775
:100C8000DEB72A970FB6F894DEBF0FBECDBF6A87D6
:100C9000498726170CF0DFC0E6160CF4ECC09A85E5
:100CA0002A87292F982F898599873A853E112DC04B
:100CB000498548171CF4982F842F998708172CF022
:100CC000598550170CF40987082F29852F5F201BA1
:100CD0004A85602F8BE793E02A960FB6F894DEBF23
:100CE0000FBECDBFDF91CF911F910F91EF90DF909D
:100CF000CF90BF90AF909F908F907F906F905F90BC
:100D00004F903F902F900C941206902F082F892F10
:100D10009E2DEA849A87602F002E000C770B998510
:100D2000492F990F550BFA01E61BF70BFC83EB8358
:100D3000822E022E000C9908AE2C0E2C000CBB0843
:100D4000F401EA19FB09FE83ED83282E880F33088E
:100D50006101C61AD70AFA858F2FFF0F990BBC01C4
:100D60006A197B097A836983241A350AFC01E81918
:100D7000F909F887EF83FA851FEF120F2F1301C0CF
:100D80001A85512C412C712C612C1E154CF1C3017C
:100D90006D817E810E94E715302F360FC201698177
:100DA0007A810E94E715600F4B815C81640E751E8D
:100DB0004C0C5D1C63171CF4832F362F682F6F5F5C
:100DC000262F231B4E2D632F8BE793E00E941206E4
:100DD000E394DBCF99858987892F9A852A8753C029
:100DE0008E2D0E2C000C990B9C0128193909229D7F
:100DF0004001239D900C329D900C11248A199B096F
:100E00008C9D50018D9DB00C9C9DB00C11245A8579
:100E10005E15DCF1C4016F8178850E94E715398584
:100E2000360FC50169817A810E94E715600F820C37
:100E3000931CAC0CBD1C63171CF4832F362F682F3A
:100E40006F5F262F231B4E2D632F8BE793E00E94AD
:100E50001206E394DCCFE2160CF027CF6A85E61683
:100E60000CF4B8CF902F09858987892F922F262FD0
:100E7000EA86E92E14CFE2160CF44DCF902F0985A7
:100E800099879E2DE22E292F46CF2A960FB6F894E9
:100E9000DEBF0FBECDBFDF91CF911F910F91EF90BD
:100EA000DF90CF90BF90AF909F908F907F906F908A
:100EB0005F904F903F902F9008952F923F924F92C6
:100EC0005F926F927F928F929F92AF92BF92CF92DA
:100ED000DF92EF92FF920F931F93CF93DF9300D097
:100EE00000D0CDB7DEB79C838B836A3099F4DC01E8
:100EF00018962C91189715969C9115971A968C9187
:100F00001A97299F800D11241A968C931A97199677
:100F10001C92F0C06D3009F4EDC0EB81FC8151846E
:100F2000F3E5F5150CF4C3C0AB81BC811A96FC90B7
:100F3000BFE2BF150CF4BBC0EB81FC81108524819E
:100F40002150330B129FC001139F900D1124850D6A
:100F5000911D57FC9A95181619060CF0A8C025810A
:100F60008F2D0F2C000C990B129F800D911D1124B9
:100F7000181619060CF09BC0F0A1F983752C612C92
:100F8000262E312CA12E012E000CBB08E62D062C9E
:100F9000000CFF0BAB81BC8114968C91149790E0F0
:100FA000E817F9070CF07EC00197E817F907A1F1DF
:100FB000289E6001299ED00C389ED00C1124CE0EA4
:100FC000DF1E5E96ED91FC91EC0DFD1DE4910F2D61
:100FD000E12CB62DB50DBA83AB81BC8115962C9151
:100FE00015978E2D0E2C000C990B2817190609F059
:100FF0000CF455C0CE2ED12CE0FF26C0113071F478
:101000004E2D4F0D6A81CD010E94E504F601F59544
:10101000E795E394010FE0CFE0E0D9CF402E450102
:10102000800E911C07FD9A94842D042C000C990BC2
:10103000881599055CF7212F442D672D8B819C81A4
:101040000E9412064394F0CFEB81FC8181A190A114
:101050008917E1F280A3113061F44E2D4F0D6A81A2
:10106000CF010E94E504E981AB81BC819096EC93AD
:10107000CDCF402E4501800E911C07FD9A94842D02
:10108000042C000C990B881599056CF7212F442D21
:10109000672D8B819C810E9412064394F0CF63944C
:1010A000710E74CFE981AB81BC819096EC93AB81DA
:1010B000BC8118962C91189714963C911497199608
:1010C0008C911997239F800D112419968C93199751
:1010D00017969C911797992369F0082E000C990B8D
:1010E00044E550E0239F401951091124481759073E
:1010F0000CF401CF81E090E00F900F900F900F90D3
:10110000DF91CF911F910F91FF90EF90DF90CF90E3
:10111000BF90AF909F908F907F906F905F904F9017
:101120003F902F900895682F8BE793E00C945D0714
:101130000F931F93CF93DF938C01D0E0C0E0F801B1
:10114000EC0FFD1F6491662341F08BE793E00E9452
:101150005D07892B11F02196F2CFCE01DF91CF915F
:101160001F910F910895CF92DF92EF92FF920F930C
:101170001F93CF93DF937C018B01EA01FC01C080B8
:10118000D180FB0180819181C80ED91EB601D7FEA6
:1011900002C06F5F7F4F75956795072E000C880B17
:1011A000990B0E94D21420E030E040E05FE3FFEFB3
:1011B000CF16DF068CF10E942E140E949A147983B8
:1011C0006883F70162817381F80182819381680FDE
:1011D000791F6F3FFFEF7F0714F177FF02C06F5F4A
:1011E0007F4F75956795072E000C880B990B0E9411
:1011F000D21420E030E040E05FE30E942E140E9411
:101200009A147B836A83DF91CF911F910F91FF9096
:10121000EF90DF90CF9008950E942D14CECF77FFEE
:1012200002C06F5F7F4F75956795072E000C880B86
:10123000990B0E94D21420E030E040E05FE30E946E
:101240002D14DDCF6F927F928F929F92AF92BF92BB
:10125000CF92DF92EF920F93CF93DF93CDB7DEB7AC
:101260002C970FB6F894DEBF0FBECDBF6C014B01BB
:101270003A015901AE014F5F5F4FB301C4010E94B3
:10128000B308AE014B5F5F4FB501C4010E94B308C4
:10129000AE01475F5F4FB501C3010E94B3081092D2
:1012A0009B0310929C03EB8409852F814D816B81F8
:1012B00089810E942E06C114D10409F181E0C81A67
:1012C000D1089E01275F3F4FA301BE016F5F7F4F93
:1012D000C6010E9422099E012B5F3F4FAE014F5F66
:1012E0005F4FB401C6010E9422099501AE01475F1C
:1012F0005F4FBE016B5F7F4FC6010E9422092C9693
:101300000FB6F894DEBF0FBECDBFDF91CF910F9126
:10131000EF90DF90CF90BF90AF909F908F907F9095
:101320006F900895089590E080E00895FC01019089
:101330000020E9F73197AF01481B590BBC018BE73F
:1013400093E00C9487028F929F92AF92BF920F937B
:101350001F93CF93DF93CDB7DEB7A1970FB6F89465
:10136000DEBF0FBECDBF19A2423008F44AE08E01A5
:101370000F5D1F4F842E912CB12CA12CA50194013F
:101380000E94FC13E62FB901CA01EA30F4F4E05DD3
:10139000D801EE938D01232B242B252B79F790E098
:1013A00080E0109719F0CD010E949609A1960FB622
:1013B000F894DEBF0FBECDBFDF91CF911F910F918B
:1013C000BF90AF909F908F900895E95CE1CFCF934D
:1013D000DF930E949808EC0181E191E00E94960958
:1013E0008C0F9D1FDF91CF910895EDE2F1E088EF22
:1013F00091E0DF019C011D9221503040E1F71092F5
:101400008403109285038BE493E00E9498080E9465
:101410002A038CB583608CBD8DB58E7F8DBD84E134
:1014200091E0EEEFFFE309951092810386E293E0ED
:101430000E94E7090E942A030E94A10380914203AF
:10144000813039F062E370E080E090E00E94B30404
:10145000F3CF08954F925F926F927F928F929F92F7
:10146000AF92BF92CF92DF92EF92FF920F931F93B2
:10147000CF93DF9300D000D01F92CDB7DEB740915D
:10148000AD035091AE036091AF037091B0032FB7DD
:10149000F8948091260190912701A0912801B091A4
:1014A00029012FBF481B590B6A0B7B0B8091AC03A2
:1014B00090E0B0E0A0E00091A8031091A903209172
:1014C000AA033091AB0384179507A607B70708F066
:1014D000CEC0011511052105310509F4C8C02FB78B
:1014E000F8948091260190912701A0912801B09154
:1014F00029012FBF2091AC03820F911DA11DB11DA9
:101500008093AD039093AE03A093AF03B093B00369
:1015100080919E0390919F03A091A003B091A1039D
:101520000196A11DB11D80939E0390939F03A093EC
:10153000A003B093A1031092A8031092A9031092E4
:10154000AA031092AB030E948E046093A4037093CD
:10155000A5038093A6039093A70380912E039091F7
:101560002F032FE0289FA001299F500D11245A839B
:10157000498385E10E944504A981BA818A0F9B1F96
:10158000B4E096958795BA95E1F790932F038093F1
:101590002E0320912D03222309F448C060913103CA
:1015A000262F30E050E040E029833A834B835C8370
:1015B000C0903203D12CF12CE12C40913503509195
:1015C00036034A01B12CA12C20913303309134030E
:1015D0002901712C612C8217930728F09C01481770
:1015E000590708F49A0150E040E0241935094609EA
:1015F000570969817A818B819C816C197D098E09DB
:101600009F090E94CB15A5019401241935094609AB
:1016100057090E94D213C20ED31EE41EF51EC092BB
:1016200030036C2D70E085E00E94E8030E94A10366
:101630008091490390914A03892B11F00E9457042D
:1016400081E00F900F900F900F900F90DF91CF914E
:101650001F910F91FF90EF90DF90CF90BF90AF90D0
:101660009F908F907F906F905F904F900895012B87
:10167000022B032B09F0E2C28091440381508E3F7C
:10168000B8F580914303813099F5809157038F5FBE
:101690006091580387FD09C0082E000C990B70E07B
:1016A0006F5F7F4F0E94E715682F609357038FE1AC
:1016B00093E09093B2038093B10388E48093B303E3
:1016C0000E9408028CE093E09093600380935F0394
:1016D000109265031092640381E08093530389E0C4
:1016E0008093680310926B0310926D0310926F0346
:1016F0008091440381508E3F70F480914203813089
:1017000009F01DC382E193E09093B2038093B1038B
:1017100088E48093B30380915203882331F0809151
:101720005303811102C00E941A028091530388233F
:1017300009F43EC08091670381113AC080915F0334
:1017400090916003E0916403F0916503EE0FFF1F39
:10175000E80FF91F259134912115310509F4BBC01B
:10176000A9015695479556954795842F20FD5EC053
:101770008F738093660380915603839F802D11247D
:10178000809367031092770310927603109275038B
:1017900081E08093690380932A0110926A0380910B
:1017A00064039091650301969093650380936403AD
:1017B00080916903882331F0809167038111A5C06E
:1017C0000E9408028091B303882309F4EEC18C3093
:1017D00008F082C13CE0381B398381E080938303A9
:1017E00010929B0310929C03409180034D8393E0E1
:1017F000E92EE40E1981141B0DE2010F0E2C000CD2
:10180000FF08E00EF11C07FDFA94802F002E000C5B
:10181000990B8E159F050CF061C12EE4402F63E0FB
:101820008BE793E00E9412060F5FEFCFC901E6E05D
:1018300096958795EA95E1F78F71932F96959695F2
:10184000969590514F70423099F1D0F4442309F4A9
:101850003CC04130B9F1E0916403F09165033196E9
:10186000F0936503E0936403CF01880F991FE09123
:101870005F03F0916003E80FF91F2591349170CF59
:10188000433061F0443039F720915603289F802D72
:10189000112480936F0390937003DDCF2091560342
:1018A000289F802D112480936D0390936E03D3CFD6
:1018B00020915603289F802D112480936B039093D1
:1018C0006C03C9CF0E945B02C6CF8B3008F08AE060
:1018D00080936803C0CF20916303211110C0109240
:1018E000530380915203811103C00E94080260CF0C
:1018F0000E941A028091640390916503B6CF109202
:10190000650310926403FC01B8CF81508093670394
:1019100080917703811142C0209175033091760345
:101920002F5F3F4FC901880F991FE0917103F0911C
:101930007203E80FF91F85919491482F47704093E7
:101940007803492F4695469540937903AC0164E0AE
:10195000569547956A95E1F74F7390915603499FC5
:10196000402D11244093770383FB882780F98093CF
:10197000250130937603209375038091730390E0E3
:101980002817390758F020917403222309F49EC0C8
:10199000821B91099093760380937503809177035E
:1019A00081508093770380916A0331E0380F309340
:1019B0006A034091660320917903240F80915E03AE
:1019C000280F2093540360916D03662371F070E03B
:1019D000832F032E000C990B0E94E71580916E0354
:1019E000869F200D1124209354038091540390E08E
:1019F000849664E270E00E94E7158093540320917E
:101A000068032093550360916B03662381F0062ED3
:101A1000000C770B832F032E000C990B0E94E71507
:101A200080916C03869F200D1124209355036091B3
:101A30006F036623A1F0832F330F990B70E00E9490
:101A4000E715CB0162E070E00E94E715209170037A
:101A500090915503289F900D1124909355034F3377
:101A6000C1F1809155038A300CF089E087FD80E058
:101A700080935503F894E0915403F0E0E851FD4F52
:101A8000E491E093240120917A03309155033203CD
:101A900090011124409178034203C001439F900DAF
:101AA00011242091570302C0880F991F2A95E2F74D
:101AB00097FF02C081589F4F880F892F881F990B6D
:101AC00080932B0180932C0178947CCE0E94080295
:101AD00065CF10925503CECF19827FCE5D815450D1
:101AE0005D83105D252F41E0612F80E50E94BF05D9
:101AF0002D8142E0612F83E00E94BF0581E0809349
:101B00009B0380939C03009180031981101B8DE23D
:101B1000F82EF10E2EE44F2D63E08BE793E00E9448
:101B2000120683E0800F8F0D8D83482F41502EE4E5
:101B300063E08BE793E00E9412060350105D402F94
:101B4000612F80E00E94A705402F612F83E50E944E
:101B5000A70541E0612F83E00E94290542E0612F43
:101B600080E50E9429059D8194509D8344E0692F62
:101B700080E50E94290548E06D8183E00E942905E7
:101B800084E08093840380918003A981A81BA15DD8
:101B9000A09385038091B1039091B2030E949808AD
:101BA0008091B30381508093B30380914903909156
:101BB0004A03892BD9F0B1E0B0939B0310929C03A8
:101BC00090917F0385E5891B8093840310928503A0
:101BD00080914603813009F497C090F190914503BC
:101BE000853008F0A7C08B5F91119FC00E942A0327
:101BF0008091810381110EC0EDE2F1E088EF91E068
:101C0000DF019C011D9221503040E1F710928403C6
:101C1000109285030E948E046093A8037093A90319
:101C20008093AA039093AB032091A4033091A50362
:101C3000621B730B7093A3036093A20380E001CD3A
:101C40000E9408021092530321E020938303E6E6EA
:101C5000F1E0E491EF5FE0937F03E7E6F1E0E491E8
:101C6000EF5FE093800388E691E090939A0380937E
:101C7000990310924A03109249031092810338EAA3
:101C800039830E942A0A8823E1F388E591E00E94C3
:101C90009808609147037091480390E080E04AE023
:101CA0000E94A30983E491E00E94980869816295EB
:101CB0006F7070E090E080E04AE00E94A30988E342
:101CC00091E00E94980880914203813009F48ECF00
:101CD0004981415049834111D4CF70E060E085E0F3
:101CE0000E94E80383B7817F846083BF83B78160EC
:101CF00083BF83B7816083BF889583B78E7F83BF9F
:101D000083B78E7F83BFBDCF80919E0390919F0349
:101D1000A091A003B091A1038F709927AA27BB2798
:101D20000897A105B10520F487E00E9493085ECFD3
:101D300088E7FBCF992309F459CF8FE2F6CF893298
:101D400009F0E9CC0E94F509E6CC2F923F924F9220
:101D50005F926F927F928F929F92AF92BF92CF923B
:101D6000DF92EF92FF920F931F93CF93DF93EC01DB
:101D700081E080938303109282031092810310927A
:101D8000450380939B0380939C03222423949CE02F
:101D9000C92E93E0D92E1CE009E00E942A0A88236C
:101DA000E1F3FE018491E8ECF0E08490E9ECF0E0EE
:101DB000A490082C000C9908181419040CF0A3C066
:101DC0001A140CF0A0C0F0909B039A2D91330CF0E4
:101DD00090E3682DF5E58F1691040CF064E5E09032
:101DE000870387E0880E911C83E0959487948A95F9
:101DF000E1F770E02DE231E081E04AEC50E0A92EFD
:101E0000990FBB087A151B040CF07DC0FA01949160
:101E1000F1E0FF1220C0FA01D9016894772477F825
:101E2000672C692219F06C90682A6C92769429F4D8
:101E3000319694916894772477F811966A2E621AF5
:101E4000661670F3880F19F42C5A3F4F81E07F5FBC
:101E5000480D591DD7CFF1101AC0682E6094FA01B1
:101E6000D9016894772477F8592E572019F05C909F
:101E700056205C92769429F4319694916894772454
:101E800077F811965A2E521A561670F3DBCFE3E00C
:101E9000FE1221C0482E4094FA01D90168946624AC
:101EA00067F8512C762C792239F07C90352C3E2421
:101EB00030FE0FC0782A7C92669429F43196949172
:101EC0006894662467F853941196561658F3E224E2
:101ED000B9CF7420F0CFFA01D9016894772477F84C
:101EE000672C692219F06C9068266C92769429F41C
:101EF000319694916894772477F811966A2E621A35
:101F0000661670F39FCF1092840310938503CE0161
:101F10000E94980880917F03982F990F990F891B31
:101F20008D5A8093840380918003982F990F990F85
:101F3000891B835D8093850380919E0384FF79C014
:101F400084EC90E00E94E70980917F03982F990F1D
:101F5000990F891B8D5A80938403809185038F5F2D
:101F60008093850380915703882309F465C08CEB27
:101F700090E00E94E70980917F03982F990F990FB5
:101F8000891B8D5A80938403809185038F5F809392
:101F9000850384EB90E00E94E70980914303813040
:101FA00039F5809157038F5F6091580387FD09C011
:101FB000082E000C990B70E06F5F7F4F0E94E715B1
:101FC000682F609357030E940802D0926003C0926A
:101FD0005F031092650310926403F1E0F0935303E2
:101FE0000093680310926B0310926D0310926F03BD
:101FF00080914203813019F180919D03482F50E078
:1020000070E060E080909E0390909F03A090A003FA
:10201000B090A10384169506A606B70610F08F3F70
:1020200071F480914403813009F0B7CE0E94F50924
:10203000B2CE80EC90E086CF88EB90E09ACF8FEF25
:1020400080939D030E940802109253030E9408028D
:102050008CEA90E09093600380935F031092650395
:102060001092640381E08093530399E09093680396
:1020700010926B0310926D0310926F0380934503CF
:10208000DF91CF911F910F91FF90EF90DF90CF9054
:10209000BF90AF909F908F907F906F905F904F9088
:1020A0003F902F9008951F920F920FB60F92112418
:1020B0002F933F938F939F93AF93BF93809126016C
:1020C00090912701A0912801B091290130911D0123
:1020D00023E0230F2D3758F50196A11DB11D209344
:1020E0001D018093260190932701A0932801B093AE
:1020F000290180911E0190911F01A0912001B091B2
:1021000021010196A11DB11D80931E0190931F0115
:10211000A0932001B0932101BF91AF919F918F9126
:102120003F912F910F900FBE0F901F90189526E8AA
:10213000230F0296A11DB11DD2CF1F920F920FB691
:102140000F9211242F936F937F938F939F9360919E
:102150002B01662349F180911C018F5F80931C0144
:1021600090912401891700F120912A0181E028270C
:1021700020932A0110921C0180912501882369F087
:102180008091000193E4899F802D1124895B8093C5
:1021900000010E94DB1590932C0180912C012111EC
:1021A00001C080E08093B4009F918F917F916F91E7
:1021B0002F910F900FBE0F901F901895CF93DF9324
:1021C000CDB7DEB72C970FB6F894DEBF0FBECDBFEC
:1021D000789484B5826084BD84B5816084BD85B502
:1021E000826085BD85B5816085BD80916E0081600E
:1021F00080936E00109281008091810082608093B4
:1022000081008091810081608093810080918000B5
:102210008160809380008091B10084608093B100E0
:102220008091B00081608093B00080917A008460DA
:1022300080937A0080917A00826080937A00809106
:102240007A00816080937A0080917A008068809320
:102250007A001092C10082E38093AC0381E090E0A9
:10226000A0E0B0E08093A8039093A903A093AA03F1
:10227000B093AB038FEF80939D03E0E8F7E72591E0
:1022800034912130304C09F052C2E6E9F7E7E4918D
:10229000E0938603E7E9F7E7E491E0933103E8E9A7
:1022A000F7E7E491E0933203E9E9F7E78591949148
:1022B0009093340380933303EBE9F7E7859194918E
:1022C000909336038093350387E080935803EEE9BB
:1022D000F7E7E491E0935703EFE9F7E7E491E09340
:1022E0009D03E0EAF7E78591949190934A038093E8
:1022F0004903E2EAF7E78591949190934C03809328
:102300004B03E4EAF7E78591949190934E03809311
:102310004D03E6EAF7E785919491909350038093FB
:102320004F0311E010932D036FEF70E085E00E94E2
:10233000E80388E08093370389E08093380387E0DF
:102340008093390386E080933A0304E000933B03D3
:1023500082E080933C0381E180933D030E94A103CE
:102360008CE39FE0909348038093470300934603D8
:10237000109351038BE0809389038DE08093880351
:1023800080E180938A038EE080938C038FE08093BA
:102390008B031093830310939B0310929C03109361
:1023A0008203E6E6F1E0E491EF5FE0937F03E7E686
:1023B000F1E0E491EF5FE093800388E691E0909391
:1023C0009A03809399031FB7F89480912201811199
:1023D00027C0E7E8F3E08491EBE9F3E09491E82F7C
:1023E000F0E0EE0FFF1FEC58FF4FA591B491EC9178
:1023F000E92321F461E08AE00E94DD0261E08AE0E5
:102400000E9465038CB580618CBD8CB580648CBDE9
:1024100061E08DE00E94650361E08BE00E9465034E
:10242000809122018F5F809322011FBF8CB58F7D29
:102430008CBD8CB58C7F81608CBD8DB581608DBD70
:102440008CB58C608CBD61E0809189030E9465032E
:1024500061E0809188030E94650361E080918A03B6
:102460000E94650380918C0318161CF461E00E94A1
:10247000650380918B0318161CF461E00E946503CC
:1024800080918C03181674F460E00E94DD026AE00B
:1024900070E080E090E00E94B30461E080918C03E2
:1024A0000E94DD0280918803082E000C990BFC012C
:1024B000E358FC4FE491F0E0EE0FFF1FE258FF4FAE
:1024C000259134913093900320938F03FC01EF56B4
:1024D000FC4FE491E093960380918903082E000C51
:1024E000990BFC01E358FC4FE491F0E0EE0FFF1F65
:1024F000E258FF4F2591349130938E0320938D0342
:10250000FC01EF56FC4FE491E093950380918B031F
:10251000082E000C990BFC01E358FC4FE491F0E00D
:10252000EE0FFF1FE258FF4F259134913093920335
:1025300020939103FC01EF56FC4FE491E093970345
:1025400080918A03082E000C990BFC01E358FC4F84
:10255000E491F0E0EE0FFF1FE258FF4F2591349118
:102560003093940320939303FC01EF56FC4FE491C6
:10257000E093980381E20E940B0384E10E940B0325
:102580008091860387FF03C08FE780938603809145
:10259000860380680E940B0380E20E940B038CE09C
:1025A0000E940B030E942A0381E08093560384E07B
:1025B00080937A0380E790E09093620380936103B5
:1025C00080E00E945B0261E070E083E00E94E8032B
:1025D0008091B100887F81608093B100F89410925F
:1025E000800010928100109285001092840088E192
:1025F00091E09093890080938800809181008860A9
:10260000809381008091810081608093810080911E
:102610006F00826080936F0078948091490390915D
:102620004A03892B11F00E945704809143038130A3
:1026300009F4AAC080914603882309F4A5C00E942A
:10264000080288E890E09093600380935F03109203
:1026500065031092640381E08093530389E08093C3
:10266000680310926B0310926D0310926F038091B8
:102670009D03882321F086E990E00E94A50E4090FA
:10268000010150900201609003017090040190E0FC
:10269000C92E90E0D92E2AE2A22EB12C30E3832E4F
:1026A000912C11E00E942A0A8823D1F180914403E1
:1026B000813041F480919D03882321F081EA90E0EC
:1026C0000E94A50E1093810380912301811128C0DF
:1026D000BA86A9861C861B861E821D8298868F82DA
:1026E00049825A826B827C8210939B0310939C03D5
:1026F00080E3E82E04E520E340E060E08AE20E9407
:102700002E069E012F5F3F4FAE014B5F5F4FBE0114
:10271000675F7F4F82E090E00E94220910932301BF
:10272000C114D10409F4BECF0E940000BACF9CE3CB
:1027300090938603109231038093320380E293E0FA
:10274000909334038093330384ED93E090933603A6
:102750008093350387E080935803809357038CEA76
:102760009DE090934A03809349038EED9DE0909302
:102770004C0380934B0384E79EE090934E03809339
:102780004D038CE39FE0C9CD1092570370CF109298
:102790007E0310927D0389E091E090937C03809307
:1027A0007B030895052E97FB1EF400940E94E91305
:1027B00057FD07D00E94FC1307FC03D04EF40C9485
:1027C000E91350954095309521953F4F4F4F5F4FFE
:1027D000089590958095709561957F4F8F4F9F4F8D
:1027E00008950E941E14A59F900DB49F900DA49F64
:1027F000800D911D11240895A1E21A2EAA1BBB1B66
:10280000FD010DC0AA1FBB1FEE1FFF1FA217B307BC
:10281000E407F50720F0A21BB30BE40BF50B661FD2
:10282000771F881F991F1A9469F760957095809596
:1028300090959B01AC01BD01CF010895A29FB0010D
:10284000B39FC001A39F700D811D1124911DB29FE4
:10285000700D811D1124911D08955058BB27AA2782
:102860000E9445140C9424150E94161538F00E94FD
:102870001D1520F039F49F3F19F426F40C9413151C
:102880000EF4E095E7FB0C940D15E92F0E94351529
:1028900058F3BA17620773078407950720F079F495
:1028A000A6F50C9457150EF4E0950B2EBA2FA02D1B
:1028B0000B01B90190010C01CA01A0011124FF27ED
:1028C000591B99F0593F50F4503E68F11A16F040E8
:1028D000A22F232F342F4427585FF3CF46953795E7
:1028E0002795A795F0405395C9F77EF41F16BA0BAC
:1028F000620B730B840BBAF09150A1F0FF0FBB1F5A
:10290000661F771F881FC2F70EC0BA0F621F731FA2
:10291000841F48F4879577956795B795F7959E3FFF
:1029200008F0B0CF9395880F08F09927EE0F979590
:10293000879508950E94A1146894B1110C945815BC
:1029400008950E943D1588F09F5798F0B92F992758
:10295000B751B0F0E1F0660F771F881F991F1AF08A
:10296000BA95C9F714C0B13091F00E945715B1E083
:1029700008950C945715672F782F8827B85F39F082
:10298000B93FCCF3869577956795B395D9F73EF423
:1029900090958095709561957F4F8F4F9F4F0895CB
:1029A000E89409C097FB3EF49095809570956195E9
:1029B0007F4F8F4F9F4F9923A9F0F92F96E9BB279F
:1029C0009395F695879577956795B795F111F8CF1B
:1029D000FAF4BB0F11F460FF1BC06F5F7F4F8F4F86
:1029E0009F4F16C0882311F096E911C0772321F07C
:1029F0009EE8872F762F05C0662371F096E8862F14
:102A000070E060E02AF09A95660F771F881FDAF76A
:102A1000880F9695879597F9089597F99F6780E8AD
:102A200070E060E008959FEF80EC089500240A9420
:102A30001616170618060906089500240A94121699
:102A40001306140605060895092E0394000C11F4CC
:102A5000882352F0BB0F40F4BF2B11F460FF04C079
:102A60006F5F7F4F8F4F9F4F089557FD9058440FD2
:102A7000551F59F05F3F71F04795880F97FB991FDD
:102A800061F09F3F79F0879508951216130614069A
:102A9000551FF2CF4695F1DF08C016161706180627
:102AA000991FF1CF86957105610508940895E89402
:102AB000BB2766277727CB0197F908950E947115E8
:102AC0000C9424150E94161538F00E941D1520F054
:102AD000952311F00C940D150C94131511240C94DE
:102AE00058150E94351570F3959FC1F3950F50E06E
:102AF000551F629FF001729FBB27F00DB11D639FB0
:102B0000AA27F00DB11DAA1F649F6627B00DA11D55
:102B1000661F829F2227B00DA11D621F739FB00DFB
:102B2000A11D621F839FA00D611D221F749F33276B
:102B3000A00D611D231F849F600D211D822F762F04
:102B40006A2F11249F5750409AF0F1F088234AF0E1
:102B5000EE0FFF1FBB1F661F771F881F915050404D
:102B6000A9F79E3F510580F00C940D150C94581553
:102B70005F3FE4F3983ED4F3869577956795B795D4
:102B8000F795E7959F5FC1F7FE2B880F911D9695EE
:102B9000879597F90895DB018F939F930E94F11316
:102BA000BF91AF91A29F800D911DA39F900DB29FE9
:102BB000900D11240895991B79E004C0991F961770
:102BC00008F0961B881F7A95C9F78095089597FBA2
:102BD000072E16F4009407D077FD09D00E94FB154C
:102BE00007FC05D03EF4909581959F4F0895709510
:102BF00061957F4F0895AA1BBB1B51E107C0AA1F17
:102C0000BB1FA617B70710F0A61BB70B881F991F8D
:102C10005A95A9F780959095BC01CD010895EE0FC6
:0E2C2000FF1F0590F491E02D0994F894FFCF6A
:102C2E000154003000000000005D078702930992F6
:0C2C3E00090D0A004C4F414445520000B3
:00000001FF
